:020000040800F2
:10000000C0270020BD010008F30B0008B90B000851
:10001000F10B00087F020008072300080000000021
:10002000000000000000000000000000A50E000815
:100030004D09000800000000950C0008D5010008DB
:10004000D7010008D7010008D7010008D701000830
:10005000D7010008D7010008D7010008D701000820
:10006000D7010008D7010008D7010008D701000810
:10007000D7010008D7010008D7010008D701000800
:10008000D7010008D7010008D701000800000000D0
:10009000000000000000000000000000D701000880
:1000A000D7010008D7010008D7010008D7010008D0
:1000B000D7010008D7010008D7010008D7010008C0
:1000C000D7010008D7010008D7010008D7010008B0
:1000D000D7010008D7010008D70100080000000080
:1000E000D7010008D7010008D70100080000000070
:1000F000000000000000000000000000D701000820
:1001000000000000D7010008D7010008D70100084F
:1001100000000000000000000000000000000000DF
:10012000D7010008D7010008D7010008D70100084F
:10013000D7010008000000000000000000000000DF
:100140000000000000000000000000006D0C00082E
:10015000D7010008D7010008D7010008D70100081F
:10016000D7010008D70100080000000000000000CF
:10017000000000000000000000000000000000007F
:1001800000000000D701000800000000000000008F
:10019000D7010008D7010008DFF80CD000F032F8D2
:1001A0000048004769260008C027002030BF72B60B
:1001B000704762B6704780F30888704706488047EA
:1001C00006480047FEE7FEE7FEE7FEE7FEE7FEE73C
:1001D000FEE7FEE7FEE7FEE7710F00089901000861
:1001E00040EA01039B0703D009E008C9121F08C0B9
:1001F000042AFAD203E011F8013B00F8013B521E39
:10020000F9D27047064C074D06E0E06840F0010364
:1002100094E8070098471034AC42F6D3FFF7C0FFCC
:10022000DC290008FC29000870B58C1810F8015B67
:1002300015F0070301D110F8013B2A1106D110F87F
:10024000012B03E010F8016B01F8016B5B1EF9D183
:100250002B0705D40023521E0DD401F8013BFAE709
:1002600010F8013BCB1A921C03E013F8015B01F874
:10027000015B521EF9D5A142D8D3002070BDFEE724
:10028000002203E010F8013B1A44D2B2491E89B2A1
:10029000F8D25042C0B2704710B50B460C0601F0C0
:1002A0007F0202EB820100EBC10102D501F58E71E4
:1002B00001E001F55D710A70DA094A7001F01AFE79
:1002C000002010BD0A4610B5090602F07F0306D5CE
:1002D00003EB830100EBC10101F58E7105E002EB38
:1002E000820100EBC10101F55D7100248C700B707F
:1002F000D2094A7001F0E5FD002010BD70B50D4631
:100300000E0601F07F0404EB840100EBC10102D56D
:1003100001F58E7101E001F55D71ED090C704D7014
:100320008A60CB7000D0CC80022B01D100220A71F0
:1003300001F09EFD002070BD10B501F07F0404EBBC
:10034000840100EBC101C1F88833C1F88023002388
:10035000C1F88C3381F8753381F87443C37801F5A3
:100360005D71012B00D10A6114F0FF0F03D001F081
:10037000F3FD002010BD01F010FDFAE70069002236
:1003800061F30A1201681143016070470A4610B513
:10039000090602F07F0306D503EB830100EBC101E0
:1003A00001F58E7105E002EB820100EBC10101F560
:1003B0005D7101248C700B70D2094A7001F0B4FD9C
:1003C000002010BD70B511F07F0404EB840100EB38
:1003D000C1014FF0010581F81D5181F81C41C1F8A0
:1003E0002821C1F82C2101F58E714FF00002C1E9DE
:1003F000053203D001F0B0FD002070BD01F0CDFC4E
:10040000FAE700007FB5064601F0ACFC684600F054
:1004100067FCF068019DC16821F47054C4603046E7
:1004200001F0A0FE002103280DD00120B070402073
:10043000B080354835492844884209D224F47051A7
:1004400001F5605156E0B1704FF40070B0802CE0BF
:100450002F4830492844884204D224F4705101F5D1
:10046000505147E02C482D492844884204D224F4B6
:10047000705101F540513DE029482A4928448842FD
:1004800004D224F4705101F5305133E02648274955
:100490002844884204D224F4705101F5205129E007
:1004A000234824492844884204D224F4705101F599
:1004B00010511FE0204821492844884204D224F4E6
:1004C000705101F5005115E01D481E49284488422D
:1004D00004D224F4705101F5E0510BE01A481B4995
:1004E0002844884224F4705102D201F5C05101E041
:1004F00001F5A051F068C160F1684FF40050486107
:1005000004B0012070BD0000401E1BFF40420F00E0
:1005100000DC0BFFE0C810002013FBFE20D6130008
:10052000003DE7FE006A180000D3CEFE40771B00B6
:10053000C05BB3FEC091210000CA91FE40AC270011
:10054000C01D6AFE40E13300803C36FEE09C410065
:100550002DE9F0410646002401F027FE074650E051
:10056000F8074CD03069E1B20369426BCA4006EB30
:10057000810102F00102896943EAC2128D681540C7
:10058000E9071AD00125426B05FA04F18A43426358
:1005900006EB8400806985601C48E1B2006842680F
:1005A00030469047F078012807D134B996F8110108
:1005B000042802D1304601F049FC280704D506EB97
:1005C0008400082580698560E80604D506EB840070
:1005D000102580698560680604D506EB84004025F7
:1005E00080698560A80704D506EB84000225806930
:1005F0008560280603D52146304600F060F97F0863
:10060000641C002FACD10120BDE8F0814000002027
:100610002DE9F0410546002401F0CDFD0746DFF845
:10062000988043E0F8073FD0E1B2284601F0C9FDC9
:100630000646C00725D005EB84000126416D8E607B
:10064000E97801290CD1406D016904EB840005EBC8
:10065000C000C1F31201D0F87C23511AC0F88C13EA
:10066000D8F80000E1B2026828469047E8780128EF
:1006700007D134B995F81101052802D1284601F0B7
:10068000E5FBB00704D505EB84000226406D8660CB
:10069000300709D5D8F8000081682846884705EB5F
:1006A00084010820496D88607F08641C002FB9D13F
:1006B0000120BDE8F08100004000002070B5054633
:1006C000C068816921F010018161E868066A06F05E
:1006D0000F0000EB800005EBC004C6F3434004F5B7
:1006E0005D74072821D2DFE800F0202004202020BC
:1006F000150047F6F070064217D0C6F30A163246C8
:100700002846E16801F065FDE0683044E060A069DA
:10071000304409E0082205F2CC51284601F059FD89
:10072000A069C6F30A110844A061E868816941F034
:1007300010018161012070BD38B5044600208DF89C
:10074000000094F812018DF8000015480068416916
:100750002046884720698068E2684FF40061516153
:10076000A17AD1B1C00718D094F81501012814D18D
:100770009DF80000032810D1D4F80C01016841F065
:1007800001010160D4F80C01016841F0030101602E
:100790000448016841F006010160012038BD0000F5
:1007A0004000002010ED00E070B50446006900250F
:1007B0000126416821F0010141602946204601F0EF
:1007C000AFFC0020FF2206E004EB80018B699A60F9
:1007D000496D8A60401C61788142F5D821694FF0EB
:1007E000FF3088612846216966F30F0066F31F40D9
:1007F000C861216945F00B004861216945F00B0093
:1008000008612069016821F4FE610160204601F061
:100810001DFBE1684FF4805048610348006801699E
:1008200020468847012070BD4000002070B5044676
:1008300001F0E0FC0120002384F8120184F8143157
:100840001A46402510E002EB820104EBC10181F859
:100850001D0181F81C21A1F8222181F81F31C1E975
:100860004953521CC1F8303161789142EBD80020D5
:1008700010E000EB800104EBC10181F8753381F8D1
:100880007403A1F87A0381F87733C1E9DF53401C80
:10089000C1F8883361788142EBD8204601F05AFADA
:1008A000204601F055F90021204601F003FD2046C5
:1008B00001F08EF92046BDE8704001F00BBC2DE937
:1008C000F0470E4601EB860100EBC1048046D4E9F7
:1008D0004C01401AD4F8241104F58E74814200D2E0
:1008E0000846C01C08EB86098708D9F818008169FA
:1008F00020E0451AA068A84200D20546E81C8708F7
:10090000ABB2F2B24046E16801F0E9FCE06828448D
:10091000E060A0692844A061D9F81810896962696B
:10092000824207D1207801228240D8F81000436B20
:100930009343436388B2B84205D9D4E905018142A3
:1009400001D20028D5D10120BDE8F0877047000012
:1009500005490028086802D040F4806001E020F4D6
:100960008060086070470000003C024070B5064699
:10097000002529B1012927D0022928D04FF440753C
:1009800000F080F809281ED1124C206820F4407035
:100990002060206828432060206820F0F800206054
:1009A000206846F0020108432060206840F480304F
:1009B000206000F067F8216821F0020121602168C1
:1009C00021F0F801216070BD4FF48075D8E74FF435
:1009D0000075D5E7103C02400D4909200A68D20392
:1009E00001D5012070470A68D20601D5062070475C
:1009F0000A68D20501D5022070470A6812F0EF0F8D
:100A000001D00720704709688907FBD50820704787
:100A10000C3C02400248016841F00041016070470F
:100A2000103C024070B50D46064600F02BF8092830
:100A300013D10A4C206820F440702060206840F4F4
:100A400000702060206840F001002060356000F0F8
:100A500019F8216821F00101216070BD103C0240AD
:100A600005480068002805DA034804490C3801608D
:100A70000349016070470000103C024023016745B4
:100A8000AB89EFCD08B509208DF80000FFF7A4FF72
:100A90008DF800009DF800000128F7D09DF80000B7
:100AA00008BDF0B5002201274FF0030C0B6807FAD0
:100AB00002F52B40AB422CD1066853000CFA03F42C
:100AC000A64306600E79D0F800E09E4046EA0E0686
:100AD00006600E79012E01D0022E12D18668A6433F
:100AE00086604E79D0F808E09E4046EA0E068660A1
:100AF0004668AE43466045688E799640B6B2354347
:100B00004560C568A543C560CC799C40C3681C435B
:100B1000C460521C102AC9D3F0BD4B07DB0E9A40AB
:100B2000C90810B500EB8100016A0F249C40A14365
:100B30000162016A1143016210BD02460020126980
:100B40000A4200D001207047F0B4194D29780029DD
:100B50000AD1E9680026B1F5007F00D1EE60D5E941
:100B60000221914202D12E70F0BC704702D9C1F52A
:100B7000007201E0A2EB01024FF001072A61402A56
:100B80008CB205D940234031403AC5E9031205E053
:100B90001144C5E9031693B2402B06D02F700549C6
:100BA0000A19F0BC8121FFF70DBC02212970F6E77C
:100BB00058000020E4090020FEE7F0B500230A24D5
:100BC000302537261F4610E0B4EB107F02D905EB25
:100BD000107C01E006EB107C01F813C001EB430C24
:100BE00000015B1C8CF80170DBB29342ECD3F0BDCA
:100BF000FEE7704730B50F23C27801780125FAB1BE
:100C0000144A126801F1E02102F4E062C2F5E062E8
:100C1000C2F30722C2F10404D3404278A240847890
:100C20001C401443220181F80024007800F01F01C9
:100C30008D404009800000F1E020C0F8005130BD37
:100C400001F01F0085404809800000F1E020C0F855
:100C5000805130BD0CED00E00249084302490860B4
:100C6000704700000000FA050CED00E0014800F0BC
:100C7000E1BB0000E40B0020054A02EB101300F07A
:100C80000F001B780B70105C487000208870704754
:100C9000CC29000870470000044A0029116801D0DF
:100CA000014300E08143116070470000303802408A
:100CB000044A0029116801D0014300E0814311601A
:100CC0007047000034380240044A0029116801D0FE
:100CD000014300E081431160704700004438024046
:100CE00070B5204B1968204C11F00C0104D066102F
:100CF000042903D0082903D004601BE0066019E032
:100D0000184A121F1168C1F38055116801F03F01A4
:100D100015B1B6FBF1F101E0B4FBF1F11468126812
:100D2000C4F388146143C2F30142521C5200B1FB68
:100D3000F2F1016019680F2202EA11110B4A545CAA
:100D40000168E14041601C68072505EA9424145DB0
:100D500021FA04F484601B6805EA5333D25CD14065
:100D6000C16070BD083802400024F4000400002077
:100D70001C49884201D2002070471B49884201D299
:100D8000082070471949884201D21020704718493D
:100D9000884201D2182070471649884201D220208B
:100DA00070471549884201D228207047134988426C
:100DB00001D2302070471249884201D23820704752
:100DC0001049884201D2402070470F49884201D221
:100DD000482070470D49884201D250207047582062
:100DE00070470000004000080080000800C00008B4
:100DF00000000108000002080000040800000608C6
:100E00000000080800000A0800000C0800000E0896
:100E100010B5002303E010C841F823405B1C934247
:100E2000F9D310BD2DE9F041092690460F4604463E
:100E3000B0F1006F31D3A0072FD1FFF711FE0020D2
:100E4000FFF786FD1648254604EB880884420ED33A
:100E50001AE02868401C09D02846FFF789FF0221C4
:100E6000FFF784FD0646092801D00FE02D1D4545FA
:100E7000EFD3092E08D009E020463968FFF7D2FDEC
:100E8000092803D1241D3F1D4445F5D30120FFF758
:100E90005FFDBDE8F041FFF7BDBDBDE8F08100009A
:100EA0000000FF1F704700000CB500222649009289
:100EB0000192086840F4803008604FF4A04308684D
:100EC00000F4003001900098401C0090019810B987
:100ED00000989842F3D10868800332D50120019030
:100EE00019484030026842F0805202601748026898
:100EF00042F440420260144808300268026002680E
:100F00000260026842F480520260031F104A1A60B5
:100F10000A6842F080720A600A689201FCD50D4AA4
:100F200040F202711160016821F003010160016863
:100F300041F0020101600168C1F381010229FAD187
:100F40000CBD01920CBD0000003802400070004052
:100F500008304004003C02404FF0E02104280869BA
:100F600003D020F004000861704740F00400FAE765
:100F7000124810B5016841F4700101601048016821
:100F800041F0010101600E4A00210832116002683F
:100F90000C4B1A400260031D0B4A1A60026822F4CF
:100FA0008022026006480C300160FFF77DFF034994
:100FB0004FF000608039086010BD000088ED00E04F
:100FC00000380240FFFFF6FE10300024044B996009
:100FD00018600448C3E9050203481861704700001F
:100FE000A01B0020ED0F00085910000810B5194C87
:100FF0002068A168007808702068A168407848706F
:101000002068A168807888702068A168C078C8705E
:101010002068C2784168A068001DFFF7E1F82068E9
:10102000A269C178A068091D90472268A168D2789A
:101030001144091DFF2804D808702068C078401D9D
:1010400005E0020A0A7048702068C078801DA081FF
:1010500010BD0000A01B002070B5204C002560686A
:10106000401FB0F5817F01D3012070BDA068C17819
:101070002068C1706068431A581F1B1F022801D3E3
:10108000022070BDA0684218121D012B02D0022B55
:1010900002D008E0157806E013784FF6FF7505EAF0
:1010A000032355781D43A269091D9047854201D04D
:1010B000032070BDA168226809781170A1682268B8
:1010C00049785170A168226889789170A168226876
:1010D000091D516021680881042070BDA01B0020FB
:1010E00010B5D0F8E42552689047002010BD10B527
:1010F000134600240A462146FFF71EF9204610BD7C
:1011000010B5134600240A462146FFF75BF9204636
:1011100010BD10B504468021FFF738F900212046A4
:10112000FFF734F92046BDE8104000F08FBE10B53F
:10113000C0F894230323C0F8902380F8113113469C
:1011400000240A462146FFF7F7F8204610BD70B587
:1011500005460024052085F8110123462246214634
:101160002846FFF7E9F8284600F070FE204670BDDB
:1011700010B5C0F83C210223C0F8382180F81131A5
:10118000134600240A462146FFF71CF9204610BDED
:1011900070B505460024042085F811012346224637
:1011A00021462846FFF70EF9284600F04FFE20465C
:1011B00070BD000070B5054641B1D5F8E40542693F
:1011C000BAB395F8120103284CD04DE095F81101FF
:1011D000002605F58E74022839D1E169A0688142A4
:1011E0000FD9081AE061E878012803D1D4E9021088
:1011F0000844E060A08BE16882B22846FFF780FFD8
:1012000010E0216AB1FBF0F200FB121292B98142A8
:1012100010D3606A81420DD2002211462846FFF7A2
:101220006FFF666200231A4619462846FFF784F8C6
:101230000DE016E0D5F8E405C16829B195F8120172
:10124000032801D1284688472846FFF780FF95F8F4
:101250001601012808D1054800682969486085F809
:10126000166101E028469047002070BD4400002030
:1012700070B5054641B1D5F8E4058269FAB195F833
:10128000120103282AD02BE095F8110105F55D74B1
:10129000032825D1A168E069884211D9401AE0618C
:1012A000E878012802D1E0680844E060E0698842FB
:1012B00000D3084682B22846E168FFF718FF0FE026
:1012C000D5F8E405016929B195F81201032801D187
:1012D000284688472846FFF75BFF01E028469047ED
:1012E000002070BD38B50446C888ADF800004888B5
:1012F0000D46010A04294CD2DFE801F04B02071326
:10130000D4F8EC15A0780A6830E0D4F8E415A07899
:101310008A6A69469047014602204870C4F8F01571
:1013200027E0C0B2062834D2DFE800F003080D122F
:10133000171CD4F8EC15A0784A6817E0D4F8EC151F
:10134000A0788A6812E0D4F8EC15A078CA680DE09D
:10135000D4F8EC15A0780A6908E0D4F8EC15A07868
:101360004A6903E0D4F8EC15A0788A696946904789
:101370000146BDF8000000280AD0EA88002A07D0FC
:10138000824200D90246ADF800202046FFF7F0FE69
:1013900038BD29462046FFF7BCFE38BD70B5002396
:1013A00000281DD00446002502E06D1CEDB2641C2F
:1013B0002678002EF9D1022404EB45041480CC5485
:1013C0005B1C0322CA5400245B1C06E0CA545B1C4D
:1013D000DAB28C54521CD3B2401C0278002AF5D1E8
:1013E00070BD2DE9F0411D46174688460446069E0D
:1013F00000F070FB04F2E452414682E8E00020462F
:10140000FFF714FAD4F8E805006880472046BDE8E5
:10141000F04100F049BB10B5D0F8E415096A8847DF
:10142000002010BD10B5D0F8E415496A88470020A7
:1014300010BD00002DE9F0410646002400F0A7FE93
:1014400000286AD0304600F0ABFE051E66D02803A7
:1014500003D53046FFF7DCF80446680303D5304671
:10146000FFF776F80443A80702D5F1680220486127
:101470002B4F002D16DAB07A28B1D6F80C0101688E
:1014800021F0030101603069416821F001014160F0
:101490003868816930468847F1684FF000404861FC
:1014A00044F00104280503D53046FFF745F904430D
:1014B000280708D53868C16830468847F168082091
:1014C000486144F00104E80603D53046FFF7F6F81A
:1014D0000443E80403D53046FFF766F90443A80443
:1014E00003D53046FEF78EFF0443E80209D538687D
:1014F000C16930468847F1684FF48010486144F074
:101500000104A80209D53868016A30468847F168A5
:101510004FF40010486144F001042046BDE8F0811A
:101520004000002090F8CC250A7090F8CD254A7034
:1015300090F8CE2590F8CF3502EB03224A8090F840
:10154000D02590F8D13502EB03228A8090F8D2257D
:1015500090F8D33502EB032292B2CA800121C0F881
:10156000402180F81111704710B500230446402235
:101570001946FEF7C3FE0023402280212046FEF7D5
:10158000BDFE012084F81201D4F8E815A07849685E
:101590008847002010BD10B50446D0F8E805006962
:1015A0008047032084F81201002010BD10B5D0F848
:1015B000E415C96901B18847002010BD10B5044683
:1015C000D0F8E405026820469047D4F8E805806822
:1015D0008047002010BD000070B50A461A4D89787A
:1015E00004462970012905D894F81201022807D071
:1015F00003280CD02046BDE870401146FFF789BD96
:10160000A1B184F81011032084F812010BE091B10C
:1016100094F81001884209D001462046FFF760FD8A
:10162000297884F810112046FFF7C8FF2046BDE84E
:101630007040FFF7ADBD022084F8120184F810114C
:101640002046FFF74DFDF1E74800002010B50446A5
:101650004888012201280FD0022831D1888810F053
:10166000FF0F2DD121694968000A06281CD2DFE846
:1016700000F01B1B0B0F1317C4F81821D4F8E40556
:1016800082682046904716E021F0700120310EE07C
:1016900021F0700130310AE021F07001403106E0A4
:1016A00021F07001503102E021F070011031054845
:1016B000016084F816212046BDE81040FFF768BDA0
:1016C00010BD0000440000201CB504466946FFF729
:1016D00029FF9DF8002012F01F010AD001290DD02A
:1016E000022910D002F080012046FEF74FFE0020B4
:1016F0001CBD6946204600F00BF8F8E76946204615
:1017000000F0F6F8F3E76946204600F079F8EEE7D6
:101710002DE9F0414A78002701260A2A42D2DFE863
:1017200002F03B554152410805412A27FFF7DAFDF7
:1017300061E004468888C8B9C888B8B9887800F0DC
:101740007F0594F81201032810D084F8145129461B
:101750002046FEF713FE2046FFF71AFD1DB10220BA
:1017600084F8120147E084F8126144E0204619E051
:10177000FFF732FF3FE0CA88012A13D190F8122107
:10178000022A02D0032A0DD102E001221B4917E0F0
:10179000012200F5887113E090F81221022A04D08A
:1017A000032A02D0FFF7B5FC25E014490839CE60C2
:1017B000D0F818210AB10322CA6010490222091D7B
:1017C000FFF7D6FC17E0FFF741FF14E0044690F85E
:1017D0001201022801D00328C8D1488801280AD163
:1017E0000020C4F81801D4F8E40582682046904728
:1017F0002046FFF7CDFC3846BDE8F08150000020C0
:1018000070B50D460446287800260979C0F34110CA
:10181000012806D0687878B301281ED003283AD171
:1018200006E0D4F8E405294682682046904732E075
:1018300094F81201022830D0032828D1688828B9EA
:1018400021B1802902D02046FEF7A0FDD4F8E4059E
:1018500029468268204690470FE094F8120102283A
:101860001BD0032813D16888A8B931B1802904D0CE
:101870002046FEF727FDE9E703E02046FFF788FC56
:1018800009E094F81201022807D003280DD0294658
:101890002046FFF73EFC304670BD0029FBD0802972
:1018A000F9D02046FEF772FDF5E7104A08064FF022
:1018B00000034FF0010508D501F07F0000EB800028
:1018C00004EBC00090F81E0105E001EB810004EB81
:1018D000C00090F8760308B1556000E053600349FA
:1018E0000222091D2046FFF743FCD4E748000020F0
:1018F00070B5054690F8120100260C4603280DD15C
:10190000207901280AD8D5F8E4058268284690474E
:10191000E08830B92846FFF73BFC02E02846FFF795
:10192000F8FB304670BD10B590F8121180F8131115
:10193000042180F81211D0F8E805C0688047002023
:1019400010BD000010B50A46024903A0FFF726FDAE
:10195000004810BDA01A002056435020436F6E6609
:101960006967000001490120087070475C01002090
:1019700001490120087070475C0100201220088096
:10198000004870473001002001490020087070476E
:101990005C010020704770470149002008707047C3
:1019A0005C0100207047000010B50A46024903A000
:1019B000FFF7F4FC004810BDA01A00205643502049
:1019C000496E7465726661636500000004200880DA
:1019D000004870472C01002010B50A46024903A0B8
:1019E000FFF7DCFC004810BDA01A002053544D69DD
:1019F00063726F656C656374726F6E696373000008
:101A00000A4610B5044920B104A0FFF7C7FC0248FC
:101A100010BD0BA0F9E70000A01A002053544D336D
:101A200032205669727475616C20436F6D506F720D
:101A30007420696E204653204D6F646500000000DD
:101A400053544D3332205669727475616C20436F64
:101A50006D506F727420696E204853206D6F6465FD
:101A60000000000010B51A2008800A480168001D17
:101A70000468001D0068081809D008220649FFF70D
:101A80009CF80549042210312046FFF796F80248D9
:101A9000801E10BD107AFF1F4401002043200880E3
:101AA000004870478000002008B54FF44070FFF7F1
:101AB000D3F843208DF8000006208DF801000020A7
:101AC0008DF8020001208DF803006846FFF792F8B8
:101AD00008BD00001CB501210846FFF7DDF84FF4F2
:101AE000C050009003208DF8050002208DF80400FE
:101AF00000208DF806000D4C8DF807006946204641
:101B0000FEF7CFFF0A220B212046FFF706F80A2234
:101B10000C212046FFF701F801218803FFF7D4F8D4
:101B200001218020FFF7C4F81CBD00000000024026
:101B30004FF47A714843AFF30080C0EB00100021EE
:101B4000C0000722B0FBF2F0491C8142FCD970476B
:101B500070B50446017A0025C068012915D0C16816
:101B600041F04001C160204600F0C8F8617A4FF4AE
:101B7000341009B14FF47410E16888631420FFF742
:101B8000D7FFE078012819D020E0816B627A21F438
:101B900080310AB141F480118163E068C16821F0AD
:101BA000401121F42021C160204600F0A7F8E07820
:101BB00001280BD1E1682A208860E2E7E0688168AB
:101BC00021F01E010A3141F020018160284670BDDC
:101BD0002DE9F04104460027D0F80C013E4633467B
:101BE0001D4607602069016821F4C0510160E07A58
:101BF000012828D10321204600F0C3FAE1688020A3
:101C000048622021E26861F31F4360F30F0393628F
:101C100003EB134262F30F0560F31F45E068C0F861
:101C2000045105EB154060F30F05E06861F31F45B3
:101C3000C0F8085105EB154060F30F05E06866F346
:101C40001F45C0F80C511021204600F069FA2046CB
:101C500000F048FA206906612069466121694FF069
:101C6000FF3088612069C66100204FF09043FF2556
:101C700011E004EB8002D2F818C0DCF80010002953
:101C800001DA194600E03146CCF8001091690E6186
:101C900091698D60401C61788142EAD8002011E092
:101CA00004EB8002D2F854C0DCF80010002901DAFD
:101CB000194600E03146CCF80010516D0E61516DAF
:101CC0008D60401C61788142EAD82069016941F445
:101CD00080710161E078012809D10320402161F37E
:101CE0008A0040F4803061F359402169086320463E
:101CF00000F0CCF93846BDE8F0810000F8B50026C8
:101D0000044637460096124D0320FFF716FFE068A1
:101D1000006900907F1CAF4201D90020F8BD0098F7
:101D20000028F1DA0098002140F0010000900098AE
:101D3000E2681061E06802690092491CA94202D879
:101D4000009AD207F7D10320FFF7F7FE3046F8BD1F
:101D5000400D0300C0680022816821F0010181600C
:101D60001046704710B501690024896883691A68B4
:101D7000C1F3410119B1012901D0022902D0D10AD0
:101D8000C90202E0D10AC902C91C19600069416890
:101D900041F480714160204610BDF0B54B780026BB
:101DA0004A69012B12D00B7800EB8304636D1D6828
:101DB0001B69C2B38A684A6162F3060343F40022D6
:101DC000636D1A61C278012A30D035E083691F68DB
:101DD0001C6932B18D68AA4208D965F306044D61C9
:101DE00006E024F07F0242F4002203E062F30604DE
:101DF00044F400221A61C278012A05D10C780A69DC
:101E000000EB8404A469626147F004421A60C2785E
:101E1000CAB94A69BAB10A78006901219140426B96
:101E20000A4342630FE0FFE70A7AC5E70B780A69C5
:101E300000EB83035B6D5A61097845F0044200EBC7
:101E40008100406D02603046F0BD0000426D0749E0
:101E50001161C178012908D1426D00F2CC51516164
:101E6000406D01684FF080210160704718000860E4
:101E7000F0B506460D7800204F780124AC400346AB
:101E800006EB8502012F18D0526D64F31F431468CE
:101E900025040DD40D8965F30A04CD78897965F39D
:101EA000934461F3995444F0805141F4004111602E
:101EB0003169CA691A43CA61F0BD926964F30F03BC
:101EC000E5E710B503464C780A78002003EB820260
:101ED000012C09D0526D1368C97823F4001303292B
:101EE00004D0022902D003E09269F4E743F0805362
:101EF000136010BD70B50B78044600254E780122A2
:101F00009A40284604EB8301012E09D0496D62F303
:101F10001F400D602169CA698243CA61284670BDAD
:101F2000896962F30F00F4E702464B7809780020D4
:101F300002EB8101012B05D0496D0A6842F40012C1
:101F40000A6070478A691168002901DA41F080410E
:101F500041F4001111607047F0B54A780B78002405
:101F60000125D1F814C000EB8303012A1BD05E6D5C
:101F700032683669BCF1000F68D08D680CEB05073C
:101F80007F1EB7FBF5F767F3DC46C6F3C9476F431F
:101F900067F31206C6F312054D615B6D1E61C378CF
:101FA000012B59D05EE09F693A683E69BCF1000F91
:101FB0000DD08B686CF312069C44ACF1010CBCFB99
:101FC000F3F363F3DC46CB78012B05D008E06FF325
:101FD000120665F3DC4603E026F0C04606F1005623
:101FE0003E61C378012B0ED0CB78012B12D04B6908
:101FF000BBB10B789D4003695E6B2E435E63CB786B
:10200000012B07D00DE00D780B6900EB8505AD695C
:102010006B61F4E703699B681B0ADB070CD042F095
:1020200080520B7842F0044200EB83039B691A60F4
:10203000CA78012A03D026E042F00052F1E78A8AEA
:1020400093B20A78C96800F04AF91CE08F6867F318
:10205000120665F3DC46A0E70D780B6900EB8505F9
:102060006D6D6B61CB78012B06D14B7913B142F0CA
:10207000005201E042F08052097842F0044200EB45
:102080008100406D02602046F0BD000030B5C3689D
:10209000002211469A61C4686FF080436361C5688D
:1020A000541E6C60C4686361C468094BA361C37843
:1020B00003B91021C06841F4872141F008118369F8
:1020C00041F440118B430B438361104630BD000047
:1020D00000080080C0680022816841F00101816031
:1020E0001046704738B500240246214600940098F7
:1020F00040F0100000900098D36818610748D2683B
:1021000013690093491C814202D8009BDB06F7D477
:102110000320FFF712FD204638BD0000400D0300EC
:1021200038B50024034622460094009840F0200071
:102130000090009861F38A1000900098D9680861B7
:102140000748D9680B690093521C824202D8009B51
:102150009B06F7D40320FFF7F0FC204638BD0000B3
:10216000400D030000698068C0F3410028B10128D8
:1021700001D0022803D002207047032070470120BD
:1021800070470069026861F3010202607047C0682D
:10219000406910F0010F01D0002070470120704706
:1021A000C068416980690840704700698169C069F9
:1021B000084080B2704700698169C0690840000C1E
:1021C000704700EB8101496D8968006940690840EA
:1021D000704710B504460023D21C9008D4F8D020D4
:1021E00003E0146841F8044B5B1C8342F9D30846B2
:1021F00010BD000070B500220123C270402683701C
:10220000154614468680012901D061B114E0C372DD
:102210000821017004214FF0A04241709115C18046
:102220000221017208E0C4720C2101700621417084
:102230001F4A4FF4A061C18002F50061C0E903218B
:1022400000210AE002EB411303F5106600EB810464
:1022500003F53063A661491C636543788B42F1D86E
:1022600002F5806141614031C0F8CC10002108E0E6
:1022700002EB411300EB810403F5A063491CC4F891
:10228000903003788B42F3D8002108E002EB013351
:1022900000EB810403F58053491CC4F8D030037867
:1022A0008B42F3D802F56062C0F80C21284670BD5D
:1022B0000000044010B5C3680024D868012920F04C
:1022C000C04201D019B104E042F0005201E042F0F6
:1022D0008042DA603220FFF72BFC204610BD30B57B
:1022E00005460020EC78002C0CD105EB8202DB1CAB
:1022F0009B08D2F8D02003E051F8045B1560641C01
:102300009C42F9D330BDFEE7042822DD124A202882
:1023100002D021281DD10BE0CB78086863F31F6041
:10232000106008791071487950718879907110E0C7
:10233000107808701088000A48701068000C8870C7
:102340001068000EC8701079087150794871907942
:102350008871002070470000F4000020F0B50D4E99
:1023600032887388521C9A4211D000220A4C4FF4D2
:10237000006C174609E03388855CE5545B1C9BB212
:102380003380634500D33780521C8A42F3D3002048
:10239000F0BD0000F0000020D811002010B50B495E
:1023A0000C4B0B4C8A791968072A02D0082A02D0F4
:1023B00002E000F07F006054491C1960B1F5007F15
:1023C00001D100201860002010BD0000F4000020A2
:1023D000E4090020600000200020704700207047C2
:1023E00002E008C8121F08C1002AFAD170477047DE
:1023F000002001E001C1121F002AFBD1704700003C
:1024000010B504466FF00400FEF7A6FD0649E0088B
:1024100000EB40020870C2EBC0104FF6FF7202EAF8
:10242000C000488010BD00000000002070B54FF4CF
:102430000776B0FBF6F1CCB2B0FBF6F106FB110566
:1024400004E0304600F00CF8641EE4B2002CF8D131
:10245000002D04D02846BDE8704000F001B870BDE2
:102460000B49498848434FF0E021486100238B61C4
:10247000086940F0010008610869C20701D0C00383
:10248000FAD5086920F0010008618B6170470000EF
:102490000000002008B5012269460848FEF7B8FC94
:1024A00007490098074A087001208318D3F8103AAA
:1024B0000B54401CC0B20D28F7D308BD00400008E3
:1024C0008A0100200070FF1F10B507480121074C4A
:1024D00001708178817060698047A189A068BDE83A
:1024E000104000F05BB9000098090020A01B0020FC
:1024F00010B501680D4A1140B1F1005F15D1416876
:102500000B4C21600068FDF756FE0020421E810042
:1025100001F1E021C1F88021C1F88022401C082887
:10252000F5DB2068BDE81040004710BD0000FE2F1D
:102530007C0100202DE9F047002590460C46074617
:102540002E464FF40079DFF854A019E0E078A17826
:10255000000640EA014061784A4640EA012014F84A
:10256000041B01434AF825106D1CADB2954206D1FB
:1025700000250A493846FEF755FC07F50067361D69
:102580004645E3D3002D06D02A463846BDE8F0473D
:102590000249FEF747BCBDE8F0870000BC1B0020E5
:1025A0001CB501210846FEF777FB012000900020B2
:1025B0008DF8040002208DF80700084C8DF8050006
:1025C00069462046FEF76DFA01212046FEF7B5FA6E
:1025D000002802D10248FFF78BFF1CBD000002401B
:1025E000008000081CB501210846FEF755FB0121BB
:1025F0000220FEF751FB01210420FEF74DFBC02015
:10260000012400908DF8044000208DF806008DF81C
:10261000054069460E48FEF744FA200300906946DB
:102620000C48FEF73EFA4FF4C040009069460A4855
:10263000FEF737FA0948C0F8B0420948C0F8984296
:10264000C0F89C420748C0F8B442C0F8B8421CBD6C
:1026500000000240000402400008024000804042A6
:10266000000040420000414200273D463C46B9463A
:10267000B846424EFFF794FF6020FFF7C1FEFFF718
:10268000B1FF00F091F93E4A3E493F48FEF79EFCFB
:10269000DFF8F8A04FF0000BBAF80000E8B381456E
:1026A0004AD13B49486008698047042803D039492A
:1026B000FEF7E2FA3DE0344D6878012802D00528A3
:1026C0002CD034E0EA781AB1B8F1000F0BD01EE03C
:1026D00030494FF00108224617313046FFF72AFFF4
:1026E0000024264E13E02B48696817302044FDF77C
:1026F00077FDE8784FF400620444944207D32549FB
:10270000002417313046FFF715FF06F5006685F8FF
:1027100003B00120C5F804B008E010E0FFF7BAFEEE
:102720000D20E8701B480A30686005206870FFF7CC
:10273000CBFEAAF800B000E081460025ACE73C20C3
:10274000FFF774FEB8F1010F04D028466D1CB0F5F8
:102750007A7F03D900250948FFF7CAFE7F1CBFB264
:102760000A2F99D30C490027D1F8B00218B10020E4
:10277000C1F8B00290E70120FAE7000000800008ED
:1027800081020008D811002098090020F0000020E4
:10279000A01B0020800100200080404270B50D4643
:1027A0000646002403E0305DFFF7F8FD641CAC42F0
:1027B000F9D370BD70B5164C00252178012902D0DF
:1027C00002291ED01BE0216951B1114A4029D2686B
:1027D00096B207D9402340394032C4E9032109E0C9
:1027E00025700CE08BB21144C4E90315402B01D1D4
:1027F0000221217007498A198121FDF7E3FD00209C
:1028000070BD00231A468121FDF7DCFDE8E70000DA
:1028100058000020E409002010B5044601EB8100B7
:1028200004EBC000B0F88C0381B206480269064888
:1028300090474023044A01212046FDF77DFD0020FA
:1028400010BD0000FC000020A409002010B50446C3
:102850008121FDF721FD01212046FDF71DFD82218B
:102860002046FDF719FD024840688047002010BD52
:10287000FC00002010B5074C6069FF2807D006490E
:10288000A2698B6804F120019847FF206061002055
:1028900010BD000058000020FC00002010B50446C8
:1028A000022340228121FDF729FD0223402201213C
:1028B0002046FDF723FD0323082282212046FDF751
:1028C0001DFD084902200871002048710648016872
:1028D00088474023054A01212046FDF72DFD0020B1
:1028E00010BD000030010020FC000020A4090020E1
:1028F000064A10B5D169491CD161022903D10021D2
:10290000D161FEF721F9002010BD00005800002021
:1029100070B5054608780C46214E10F060011CD0B9
:10292000202922D11F49E2888B688AB1000660788D
:1029300006D506F120019847E28806F120011DE046
:10294000C6E90502164928462031FEF7F0FB21E0D2
:1029500000226078114698471CE06178062904D06F
:102960000A2908D00B2915D10CE021462846FEF78C
:10297000D0FB022070BD0A490122091D2846FEF73E
:10298000F7FB07E0608810F0FF0F05D021462846CE
:10299000FEF7BFFB002070BDC0B27060FAE7000018
:1029A00058000020FC00002008B504480090044BAB
:1029B000044A01210448FEF714FD08BD600100200F
:1029C000C400002010010020E40B0020303132331D
:1029D000343536373839414243444546FC290008EE
:1029E000000000208001000028020008E42A0008FE
:1029F0008001002040260000F0230008812D010204
:102A0000030404170607080971121408B511140805
:102A1000C9161408AD151B0869041327191B08975C
:102A2000081317141B0825048122140228200213FE
:102A3000FF140902431302012DC032090485190B4A
:102A400013052416100105240110090104240202B3
:102A50000524061701070582030815FF0904013341
:102A6000020A2E0705010240072A810711139D283B
:102A70001B084D044B1129981A750C13B5271B0818
:102A800019081AF104814B9D1A0C3420A107120871
:102A900013DD231B08D9041A09041A9D041A5D04C6
:102AA0001A7DE81ACD041AD9041A01301A65041ADD
:102AB000450C1AA9041E040309041283311E408325
:102AC000044057B9061C0203011A031AA5381A95C7
:102AD000041A65041A99041A97041A71041A8904CD
:042AE00041000000B1
:040000050800019955
:00000001FF
